:100000000C9461000C947E000C947E000C947E0095
:100010000C947E000C947E000C947E000C947E0068
:100020000C947E000C947E000C947E000C947E0058
:100030000C947E000C947E000C947E000C947E0048
:100040000C949C010C947E000C947E000C947E0019
:100050000C947E000C947E000C947E000C947E0028
:100060000C947E000C947E00000000002400270009
:100070002A0000000000250028002B0000000000DE
:1000800023002600290004040404040404040202DA
:100090000202020203030303030301020408102007
:1000A0004080010204081020010204081020000012
:1000B0000008000201000003040700000000000027
:1000C000000011241FBECFEFD8E0DEBFCDBF11E08E
:1000D000A0E0B1E0E6E2F6E002C005900D92A230A9
:1000E000B107D9F721E0A2E0B1E001C01D92AB3029
:1000F000B207E1F70E94E6010C9411030C94000092
:10010000833081F028F4813099F08230A1F0089595
:100110008730A9F08830B9F08430D1F48091800024
:100120008F7D03C0809180008F7780938000089539
:1001300084B58F7702C084B58F7D84BD089580918A
:10014000B0008F7703C08091B0008F7D8093B000A6
:100150000895CF93DF93282F30E0F901E255FF4F48
:100160008491F901E656FF4FD491F901EA57FF4F08
:10017000C491CC2391F081110E948000EC2FF0E01B
:10018000EE0FFF1FE458FF4FA591B491EC91ED23C2
:1001900081E090E021F480E002C080E090E0DF9117
:1001A000CF9108951F93CF93DF93282F30E0F9016B
:1001B000E255FF4F8491F901E656FF4FD491F901C2
:1001C000EA57FF4FC491CC23C1F0162F81110E9432
:1001D0008000EC2FF0E0EE0FFF1FEE58FF4FA591CF
:1001E000B4919FB7F894111104C08C91D095D82385
:1001F00002C0EC91DE2BDC939FBFDF91CF911F916A
:100200000895CF93DF9390E0FC01E656FF4F2491D1
:10021000FC01EA57FF4F8491882361F190E0880F39
:10022000991FFC01E859FF4FC591D491FC01EE588C
:10023000FF4FA591B491611109C09FB7F8948881CF
:10024000209582238883EC912E230BC0623061F4C9
:100250009FB7F8948881322F309583238883EC915F
:100260002E2B2C939FBF06C08FB7F894E8812E2BBE
:1002700028838FBFDF91CF9108953FB7F894809185
:10028000070190910801A0910901B0910A0126B5DA
:10029000A89B05C02F3F19F00196A11DB11D3FBFBE
:1002A000BA2FA92F982F8827820F911DA11DB11D4C
:1002B000BC01CD0142E0660F771F881F991F4A9548
:1002C000D1F708958F929F92AF92BF92CF92DF9213
:1002D000EF92FF926B017C010E943D014B015C019A
:1002E000C114D104E104F104F1F00E943D01DC01EC
:1002F000CB0188199909AA09BB09883E9340A10539
:10030000B10570F321E0C21AD108E108F10888EEC6
:10031000880E83E0981EA11CB11CC114D104E10415
:10032000F10419F7DDCFFF90EF90DF90CF90BF90F1
:10033000AF909F908F9008951F920F920FB60F92DB
:1003400011242F933F938F939F93AF93BF938091EB
:10035000030190910401A0910501B0910601309133
:10036000020123E0230F2D3720F40196A11DB11DBA
:1003700005C026E8230F0296A11DB11D209302019E
:100380008093030190930401A0930501B0930601AB
:100390008091070190910801A0910901B0910A0193
:1003A0000196A11DB11D8093070190930801A093B0
:1003B0000901B0930A01BF91AF919F918F913F9135
:1003C0002F910F900FBE0F901F901895789484B5C1
:1003D000826084BD84B5816084BD85B5826085BD41
:1003E00085B5816085BD80916E00816080936E00CF
:1003F00010928100809181008260809381008091C1
:100400008100816080938100809180008160809371
:1004100080008091B10084608093B1008091B00031
:1004200081608093B00080917A00846080937A002C
:1004300080917A00826080937A0080917A00816056
:1004400080937A0080917A00806880937A0010927D
:10045000C10060E087E00E94010160E08DE00E9441
:10046000010161E082E00E94010161E081E00E94FF
:10047000010161E080E00E94010161E08CE00E94E6
:10048000010161E08BE00E94010161E08AE00E94CD
:10049000010160E082E00E94D20060E081E00E9401
:1004A000D20061E080E00E94D20061E08CE00E9416
:1004B000D20060E08BE00E94D20060E08AE00E94FF
:1004C000D20000E010E0FF24F39487E00E94A9002E
:1004D000019709F04CC080910001811148C0F09251
:1004E000000160E177E280E090E00E94620160E05C
:1004F0008AE00E94D20061E08BE00E94D20060EDB1
:1005000077E080E090E00E94620160E08BE00E9472
:10051000D20061E08CE00E94D20060ED77E080E0E4
:1005200090E00E946201C5E0D0E060E081E00E94BE
:10053000D20064EF71E080E090E00E94620161E02F
:1005400081E00E94D20064EF71E080E090E00E94C0
:100550006201219751F760E081E00E94D20060E0E3
:1005600082E00E94D20061E080E00E94D2008DE033
:100570000E94A900019709F04DC0809100018823D5
:1005800009F448C01092000160E177E280E090E059
:100590000E94620160E080E00E94D20061E081E0A0
:1005A0000E94D20060ED77E080E090E00E9462015E
:1005B00060E081E00E94D20061E082E00E94D2000F
:1005C00060ED77E080E090E00E946201C5E0D0E05D
:1005D00060E08BE00E94D20064EF71E080E090E088
:1005E0000E94620161E08BE00E94D20064EF71E042
:1005F00080E090E00E946201219751F760E08BE07B
:100600000E94D20060E08CE00E94D20061E08AE0AB
:100610000E94D2000115110509F457CF0E94000075
:0606200054CFF894FFCF57
:020626000100D1
:00000001FF
