:100000000C9461000C9473000C9473000C947300B6
:100010000C9473000C9473000C9473000C94730094
:100020000C9473000C9473000C9473000C94730084
:100030000C9473000C9473000C9473000C94730074
:100040000C94EF000C9473000C9473000C947300E8
:100050000C9473000C9473000C9473000C94730054
:100060000C9473000C94730000000000240027001F
:100070002A000000000023002600290000000000E4
:10008000250028002B0004040404040404040202D4
:100090000202020203030303030301020408102007
:1000A0004080010204081020010204081020000012
:1000B0000008000201000003040700000000000027
:1000C000000011241FBECFEFD8E0DEBFCDBF21E07E
:1000D000A0E0B1E001C01D92A930B207E1F70E9493
:1000E00039010C940D020C940000833081F028F447
:1000F000813099F08230A1F008958730A9F08830DE
:10010000B9F08430D1F4809180008F7D03C080915C
:1001100080008F7780938000089584B58F7702C028
:1001200084B58F7D84BD08958091B0008F7703C022
:100130008091B0008F7D8093B00008951F93CF937E
:10014000DF93EAEBF0E09491E6EAF0E0D491E2E9A3
:10015000F0E0C491CC23D1F0182F992319F0892F06
:100160000E947500EC2FF0E0EE0FFF1FE458FF4FE8
:10017000A591B4919FB7F894111104C08C91D095BA
:10018000D82302C0EC91DE2BDC939FBFDF91CF918F
:100190001F9108953FB7F894809105019091060151
:1001A000A0910701B091080126B5A89B05C02F3F7B
:1001B00019F00196A11DB11D3FBFBA2FA92F982F8D
:1001C0008827820F911DA11DB11DBC01CD0142E008
:1001D000660F771F881F991F4A95D1F708951F92C0
:1001E0000F920FB60F9211242F933F938F939F93EB
:1001F000AF93BF938091010190910201A0910301FF
:10020000B09104013091000123E0230F2D3720F439
:100210000196A11DB11D05C026E8230F0296A11D60
:10022000B11D209300018093010190930201A093DE
:100230000301B09304018091050190910601A09102
:100240000701B09108010196A11DB11D8093050120
:1002500090930601A0930701B0930801BF91AF915D
:100260009F918F913F912F910F900FBE0F901F90F4
:100270001895789484B5826084BD84B5816084BD0E
:1002800085B5826085BD85B5816085BD80916E0034
:10029000816080936E001092810080918100826065
:1002A00080938100809181008160809381008091A2
:1002B00080008160809380008091B1008460809391
:1002C000B1008091B00081608093B00080917A008D
:1002D000846080937A0080917A00826080937A00B3
:1002E00080917A00816080937A0080917A008068A2
:1002F00080937A001092C100E6EAF0E02491E2E9EE
:10030000F0E08491882399F090E0880F991FFC0118
:10031000E859FF4FA591B491FC01E458FF4F859136
:1003200094918FB7F894EC91E22BEC938FBFC1EAD4
:10033000D0E0FE0124910DE810E0F80184918823BB
:10034000C9F090E0880F991FFC01E859FF4FA59173
:10035000B491FC01E458FF4F459154913FB7F89494
:100360009C91822F809598239C93FA0190818923F8
:1003700080833FBF25EB822E20E0922E30E0A32E1B
:1003800030E0B32EF4018491FE01E490F801F49082
:10039000FF2009F43BC081110E947500EF2DF0E0B1
:1003A000EE0FFF1FEE58FF4FA591B4918C918E2157
:1003B00069F181E00E949E000E94CA002B013C016D
:1003C00084EFC82EDD24D394E12CF12C0E94CA00C6
:1003D000DC01CB0184199509A609B709883E934031
:1003E000A105B10598F3F1E0CF1AD108E108F108B1
:1003F00028EE420E23E0521E611C711CC114D10470
:10040000E104F10419F780E00E949E00A114B104F8
:0E04100009F4B8CF0E940000B5CFF894FFCFDA
:00000001FF
