:100000000C945C000C9479000C9479000C947900A9
:100010000C9479000C9479000C9479000C9479007C
:100020000C9479000C9479000C9479000C9479006C
:100030000C9479000C9479000C9479000C9479005C
:100040000C9427010C9479000C9479000C9479009D
:100050000C9479000C9479000C9479000C9479003C
:100060000C9479000C947900000000002400270013
:100070002A0000000000250028002B0004040404CE
:100080000404040402020202020203030303030342
:10009000010204081020408001020408102001021F
:1000A00004081020000000080002010000030407FB
:1000B000000000000000000011241FBECFEFD8E0B8
:1000C000DEBFCDBF11E0A0E0B1E0EEE1F4E002C0A0
:1000D00005900D92A634B107D9F721E0A6E4B1E06E
:1000E00001C01D92AF34B207E1F70E9471010C9478
:1000F0000D020C94000090E0FC01EC55FF4F2491A0
:10010000FC01E057FF4F3491FC01E458FF4FE491AC
:10011000EE2309F43CC0222339F1233091F038F466
:100120002130A9F0223001F584B58F7D12C027302F
:1001300091F02830A1F02430B9F4809180008F7DB7
:1001400003C0809180008F77809380000DC084B5BC
:100150008F7784BD09C08091B0008F7703C08091F4
:10016000B0008F7D8093B000F0E0EE0FFF1FEE58DF
:10017000FF4FA591B4919FB7F894611104C08C9181
:100180003095382302C0EC913E2B3C939FBF0895DD
:100190003FB7F89480914B0190914C01A0914D0193
:1001A000B0914E0126B5A89B05C02F3F19F00196CE
:1001B000A11DB11D3FBFBA2FA92F982F8827820FED
:1001C000911DA11DB11DBC01CD0142E0660F771F3D
:1001D000881F991F4A95D1F708958F929F92AF92E9
:1001E000BF92CF92DF92EF92FF926B017C010E944F
:1001F000C8004B015C01C114D104E104F104F1F029
:100200000E94C800DC01CB0188199909AA09BB0921
:10021000883E9340A105B10570F321E0C21AD108D0
:10022000E108F10888EE880E83E0981EA11CB11C3D
:10023000C114D104E104F10419F7DDCFFF90EF9070
:10024000DF90CF90BF90AF909F908F9008951F92B6
:100250000F920FB60F9211242F933F938F939F937A
:10026000AF93BF938091470190914801A0914901BC
:10027000B0914A013091460123E0230F2D3720F43D
:100280000196A11DB11D05C026E8230F0296A11DF0
:10029000B11D209346018093470190934801A0939C
:1002A0004901B0934A0180914B0190914C01A0917A
:1002B0004D01B0914E010196A11DB11D80934B01DE
:1002C00090934C01A0934D01B0934E01BF91AF911B
:1002D0009F918F913F912F910F900FBE0F901F9084
:1002E0001895789484B5826084BD84B5816084BD9E
:1002F00085B5826085BD85B5816085BD80916E00C4
:10030000816080936E0010928100809181008260F4
:100310008093810080918100816080938100809131
:1003200080008160809380008091B1008460809320
:10033000B1008091B00081608093B00080917A001C
:10034000846080937A0080917A00826080937A0042
:1003500080917A00816080937A0080917A00806831
:1003600080937A001092C10020E030E0C90102962B
:10037000FC01E057FF4F4491FC01E458FF4F84918A
:10038000882399F090E0880F991FFC01E859FF4FEE
:10039000A591B491FC01EE58FF4F859194918FB7D0
:1003A000F894EC91E42BEC938FBF2F5F3F4F2830F4
:1003B0003105E1F660E089E00E947B0090E0C92E03
:1003C00090E0D92E80E0E82E81E0F82E1AE0C0E01F
:1003D000D0E0F701EC0FFD1F60818C2F8E5F0E9433
:1003E0007B002196C730D105A1F768EE73E080E06D
:1003F00090E00E94ED00115087E0E80EF11C111111
:10040000E6CF60EA7FE080E090E00E94ED00C1145A
:0E041000D104C1F20E940000D5CFF894FFCFB6
:10041E0001010101010100000101000000000101C4
:10042E0000010100010101010100000100010100B4
:10043E0000010101000101000101010001010101A2
:10044E000101010100000000010101010101010192
:06045E0001010100010193
:00000001FF
