:100000000C945C000C946E000C946E000C946E00CA
:100010000C946E000C946E000C946E000C946E00A8
:100020000C946E000C946E000C946E000C946E0098
:100030000C946E000C946E000C946E000C946E0088
:100040000C943B010C946E000C946E000C946E00AA
:100050000C946E000C946E000C946E000C946E0068
:100060000C946E000C946E00000000080002010069
:100070000003040700000000000000000000000072
:10008000250028002B0000000000240027002A0083
:10009000040404040404040402020202020203032E
:1000A0000303030301020408102040800102040836
:1000B000102001020408102011241FBECFEFD8E049
:1000C000DEBFCDBF21E0A0E0B1E001C01D92A930AC
:1000D000B207E1F70E9485010C9470030C940000B4
:1000E00090E0FC01EC55FF4F2491FC01E057FF4FDD
:1000F0008491882399F090E0880F991FFC01EA57BA
:10010000FF4FA591B491FC01E458FF4F8591949164
:100110008FB7F894EC91E22BEC938FBF089590E0A9
:10012000FC01E859FF4F2491FC01EC55FF4F34913D
:10013000FC01E057FF4FE491EE2309F43CC0222379
:1001400039F1233091F038F42130A9F0223001F553
:1001500084B58F7D12C0273091F02830A1F0243073
:10016000B9F4809180008F7D03C0809180008F77EB
:10017000809380000DC084B58F7784BD09C08091C5
:10018000B0008F7703C08091B0008F7D8093B00066
:10019000F0E0EE0FFF1FE458FF4FA591B4919FB719
:1001A000F894611104C08C913095382302C0EC9111
:1001B0003E2B3C939FBF08953FB7F8948091050173
:1001C00090910601A0910701B091080126B5A89B66
:1001D00005C02F3F19F00196A11DB11D3FBFBA2FD9
:1001E000A92F982F8827820F911DA11DB11DBC0139
:1001F000CD0142E0660F771F881F991F4A95D1F7FE
:1002000008958F929F92AF92BF92CF92DF92EF921A
:10021000FF926B017C010E94DC004B015C01C11468
:10022000D104E104F104F1F00E94DC00DC01CB0117
:1002300088199909AA09BB09883E9340A105B1050F
:1002400070F321E0C21AD108E108F10888EE880EA7
:1002500083E0981EA11CB11CC114D104E104F10477
:1002600019F7DDCFFF90EF90DF90CF90BF90AF9068
:100270009F908F9008951F920F920FB60F921124A6
:100280002F933F938F939F93AF93BF9380910101DF
:1002900090910201A0910301B091040130910001FD
:1002A00023E0230F2D3720F40196A11DB11D05C0B9
:1002B00026E8230F0296A11DB11D20930001809313
:1002C000010190930201A0930301B0930401809176
:1002D000050190910601A0910701B09108010196D6
:1002E000A11DB11D8093050190930601A093070104
:1002F000B0930801BF91AF919F918F913F912F9142
:100300000F900FBE0F901F901895789484B582605F
:1003100084BD84B5816084BD85B5826085BD85B5A9
:10032000816085BD80916E00816080936E00109227
:1003300081008091810082608093810080918100A2
:100340008160809381008091800081608093800033
:100350008091B10084608093B1008091B000816091
:100360008093B00080917A00846080937A008091BD
:100370007A00826080937A0080917A008160809315
:100380007A0080917A00806880937A001092C10090
:1003900086E00E94700084E00E94700082E00E946B
:1003A0007000C0E0D0E010E410937C0080917A00EF
:1003B000806480937A0080917A0086FDFCCF609102
:1003C00078008091790070E0782B072E000C880B64
:1003D000990B0E944E0222E539E44DE95BE30E944D
:1003E000B2026B017C012DEC3CEC4CEC5FE30E9413
:1003F000AD0287FD0DC061E086E00E948F0060EDD8
:1004000077E080E090E00E94010160E086E037C084
:100410002DEC3CEC4CEC5FE3C701B6010E944702B7
:1004200087FF17C023E333E343EB5FE3C701B60164
:100430000E94AD0218166CF461E084E00E948F0007
:1004400060ED77E080E090E00E94010160E084E0F0
:1004500016C023E333E343EB5FE3C701B6010E9419
:100460004702181674F061E082E00E948F0060ED90
:1004700077E080E090E00E94010160E082E00E946D
:100480008F00209709F490CF0E9400008DCF0E942A
:10049000890208F481E00895E89409C097FB3EF4CE
:1004A00090958095709561957F4F8F4F9F4F9923C1
:1004B000A9F0F92F96E9BB279395F695879577953F
:1004C0006795B795F111F8CFFAF4BB0F11F460FFFF
:1004D0001BC06F5F7F4F8F4F9F4F16C0882311F057
:1004E00096E911C0772321F09EE8872F762F05C06B
:1004F000662371F096E8862F70E060E02AF09A9506
:10050000660F771F881FDAF7880F9695879597F9FA
:100510000895990F0008550FAA0BE0E8FEEF161694
:100520001706E807F907C0F012161306E407F507E7
:1005300098F0621B730B840B950B39F40A2661F05B
:10054000232B242B252B21F408950A2609F4A140FE
:10055000A6958FEF811D811D08950E94890208F4E0
:100560008FEF08950E94C5020C9436030E94280361
:1005700038F00E942F0320F0952311F00C941F03F4
:100580000C94250311240C946A030E94470370F312
:10059000959FC1F3950F50E0551F629FF001729F28
:1005A000BB27F00DB11D639FAA27F00DB11DAA1F37
:1005B000649F6627B00DA11D661F829F2227B00D84
:1005C000A11D621F739FB00DA11D621F839FA00D0F
:1005D000611D221F749F3327A00D611D231F849F5F
:1005E000600D211D822F762F6A2F11249F575040B6
:1005F0009AF0F1F088234AF0EE0FFF1FBB1F661F31
:10060000771F881F91505040A9F79E3F510580F0F9
:100610000C941F030C946A035F3FE4F3983ED4F3F9
:10062000869577956795B795F795E7959F5FC1F79D
:10063000FE2B880F911D9695879597F9089597F948
:100640009F6780E870E060E008959FEF80EC089578
:1006500000240A94161617061806090608950024A1
:100660000A9412161306140605060895092E03941B
:10067000000C11F4882352F0BB0F40F4BF2B11F48F
:1006800060FF04C06F5F7F4F8F4F9F4F089557FDEE
:100690009058440F551F59F05F3F71F04795880FF0
:1006A00097FB991F61F09F3F79F087950895121687
:1006B00013061406551FF2CF4695F1DF08C0161633
:1006C00017061806991FF1CF8695710561050894E4
:1006D0000895E894BB2766277727CB0197F90895FB
:0406E000F894FFCFBC
:00000001FF
