:100000000C945C000C946E000C946E000C946E00CA
:100010000C946E000C946E000C946E000C946E00A8
:100020000C946E000C946E000C946E000C946E0098
:100030000C946E000C946E000C946E000C946E0088
:100040000C942B010C946E000C946E000C946E00BA
:100050000C946E000C946E000C946E000C946E0068
:100060000C946E000C946E00000000080002010069
:100070000003040700000000000000000000000072
:10008000250028002B0000000000240027002A0083
:10009000040404040404040402020202020203032E
:1000A0000303030301020408102040800102040836
:1000B000102001020408102011241FBECFEFD8E049
:1000C000DEBFCDBF21E0A0E0B1E001C01D92A930AC
:1000D000B207E1F70E9475010C9401020C94000034
:1000E00090E0FC01EC55FF4F2491FC01E057FF4FDD
:1000F0008491882399F090E0880F991FFC01EA57BA
:10010000FF4FA591B491FC01E458FF4F8591949164
:100110008FB7F894EC91E22BEC938FBF089590E0A9
:10012000FC01E859FF4F2491FC01EC55FF4F34913D
:10013000FC01E057FF4FE491EE2309F43CC0222379
:1001400039F1233091F038F42130A9F0223001F553
:1001500084B58F7D12C0273091F02830A1F0243073
:10016000B9F4809180008F7D03C0809180008F77EB
:10017000809380000DC084B58F7784BD09C08091C5
:10018000B0008F7703C08091B0008F7D8093B00066
:10019000F0E0EE0FFF1FE458FF4FA591B4919FB719
:1001A000F894611104C08C913095382302C0EC9111
:1001B0003E2B3C939FBF08953FB7F8948091050173
:1001C00090910601A0910701B091080126B5A89B66
:1001D00005C02F3F19F00196A11DB11D3FBFBA2FD9
:1001E000A92F982F8827820F911DA11DB11DBC0139
:1001F000CD0142E0660F771F881F991F4A95D1F7FE
:100200000895EF92FF920F931F93CF93DF93E82E01
:10021000F62EC0E0D0E0042F10E0B8010C2E02C092
:10022000759567950A94E2F761708E2D0E948F0094
:1002300061E08F2D0E948F0060E08F2D0E948F0063
:100240002196C830D10549F7DF91CF911F910F91C9
:10025000FF90EF9008951F920F920FB60F92112406
:100260002F933F938F939F93AF93BF9380910101FF
:1002700090910201A0910301B0910401309100011D
:1002800023E0230F2D3720F40196A11DB11D05C0D9
:1002900026E8230F0296A11DB11D20930001809333
:1002A000010190930201A0930301B0930401809196
:1002B000050190910601A0910701B09108010196F6
:1002C000A11DB11D8093050190930601A093070124
:1002D000B0930801BF91AF919F918F913F912F9162
:1002E0000F900FBE0F901F901895789484B5826080
:1002F00084BD84B5816084BD85B5826085BD85B5CA
:10030000816085BD80916E00816080936E00109247
:1003100081008091810082608093810080918100C2
:100320008160809381008091800081608093800053
:100330008091B10084608093B1008091B0008160B1
:100340008093B00080917A00846080937A008091DD
:100350007A00826080937A0080917A008160809335
:100360007A0080917A00806880937A001092C100B0
:1003700085E00E94700087E00E94700086E00E9485
:100380007000C0E0D0E060E085E00E948F004FE7A1
:1003900067E086E00E9401014FE167E086E00E948D
:1003A000010161E085E00E948F000E94DC006B018A
:1003B0007C0180EB882E84E0982EA12CB12C0E9429
:1003C000DC00DC01CB018C199D09AE09BF09883E18
:1003D0009340A105B10598F321E0821A9108A10884
:1003E000B10888EEC80E83E0D81EE11CF11C811410
:1003F0009104A104B10419F7209729F20E9400008A
:06040000C2CFF894FFCF0B
:00000001FF
