:100000000C945C000C9479000C9479000C947900A9
:100010000C9479000C9479000C9479000C9479007C
:100020000C9479000C9479000C9479000C9479006C
:100030000C9479000C9479000C9479000C9479005C
:100040000C9449010C9479000C9479000C9479007B
:100050000C9479000C9479000C9479000C9479003C
:100060000C9479000C947900000000002400270013
:100070002A0000000000250028002B0004040404CE
:100080000404040402020202020203030303030342
:10009000010204081020408001020408102001021F
:1000A00004081020000000080002010000030407FB
:1000B000000000000000000011241FBECFEFD8E0B8
:1000C000DEBFCDBF11E0A0E0B1E0EAE7F6E002C09C
:1000D00005900D92A430B107D9F721E0A4E0B1E07A
:1000E00001C01D92AD30B207E1F70E9493010C945C
:1000F0003B030C94000090E0FC01EC55FF4F249171
:10010000FC01E057FF4F3491FC01E458FF4FE491AC
:10011000EE2309F43CC0222339F1233091F038F466
:100120002130A9F0223001F584B58F7D12C027302F
:1001300091F02830A1F02430B9F4809180008F7DB7
:1001400003C0809180008F77809380000DC084B5BC
:100150008F7784BD09C08091B0008F7703C08091F4
:10016000B0008F7D8093B000F0E0EE0FFF1FEE58DF
:10017000FF4FA591B4919FB7F894611104C08C9181
:100180003095382302C0EC913E2B3C939FBF0895DD
:100190003FB7F8948091090190910A01A0910B0159
:1001A000B0910C0126B5A89B05C02F3F19F0019610
:1001B000A11DB11D3FBFBA2FA92F982F8827820FED
:1001C000911DA11DB11DBC01CD0142E0660F771F3D
:1001D000881F991F4A95D1F708954F925F926F92A9
:1001E0007F928F929F92AF92BF92CF92DF92EF92C7
:1001F000FF926C010E94810226E030E040E050E076
:100200000E94D8024B015C012FEF821A920AA20AC7
:10021000B20A61E0882D0E947B001C141D0434F595
:100220000D2C000CEE08FF080E94C8002B013C01B9
:100230000E94C800DC01CB0184199509A609B70901
:10024000883E9340A105B10598F381E0C81AD10812
:10025000E108F10828EE420E23E0521E611C711CD9
:10026000C114D104E104F10419F703C0CD2809F445
:10027000FFCF60E0882DFF90EF90DF90CF90BF9090
:10028000AF909F908F907F906F905F904F900C9465
:100290007B001F920F920FB60F9211242F933F9362
:1002A0008F939F93AF93BF93809105019091060127
:1002B000A0910701B09108013091040123E0230FC0
:1002C0002D3720F40196A11DB11D05C026E8230F8E
:1002D0000296A11DB11D2093040180930501909306
:1002E0000601A0930701B093080180910901909144
:1002F0000A01A0910B01B0910C010196A11DB11D45
:100300008093090190930A01A0930B01B0930C0113
:10031000BF91AF919F918F913F912F910F900FBE01
:100320000F901F901895789484B5826084BD84B531
:10033000816084BD85B5826085BD85B5816085BDE0
:1003400080916E00816080936E0010928100809198
:100350008100826080938100809181008160809320
:100360008100809180008160809380008091B10045
:1003700084608093B1008091B00081608093B00070
:1003800080917A00846080937A0080917A00826004
:1003900080937A0080917A00816080937A008091C6
:1003A0007A00806880937A001092C10080E4809384
:1003B0007C0080917A00806480937A0080917A003A
:1003C00086FDFCCF609178008091790070E0782BF9
:1003D000072E000C880B990B61157105810591059D
:1003E00011F00E94CF0221E030E0F901E057FF4F09
:1003F0004491F901E458FF4F8491882399F090E0EB
:10040000880F991FFC01E859FF4FA591B491FC0199
:10041000EE58FF4F859194918FB7F894EC91E42BAF
:10042000EC938FBF2F5F3F4F27303105F1F600E08F
:1004300010E0C4E6D0E082E390E00E94ED00219756
:10044000D1F7C4E6D0E0CE010E94ED00CC59DF4FD9
:10045000CC3484E0D807B9F780E090E00E94ED004A
:100460000115110531F30E940000E3CF8F929F9296
:10047000AF92BF92CF92DF92EF92FF92CF93DF9332
:10048000EC01688179818A819B8161157105810503
:10049000910521F464E279ED8BE597E02DE133EFEE
:1004A00041E050E00E94D80249015A019B01AC0191
:1004B000A7EAB1E40E94F7026B017C01ACEEB4EF55
:1004C000A50194010E940503DC01CB018C0D9D1D4B
:1004D000AE1DBF1DB7FF03C00197A109B0488883B7
:1004E0009983AA83BB83BC01CD019F77DF91CF9114
:1004F000FF90EF90DF90CF90BF90AF909F908F9044
:1005000008958F929F92AF92BF92CF92DF92EF9217
:10051000FF92609100017091010180910201909120
:100520000301611571058105910521F464E279EDFE
:100530008BE597E02DE133EF41E050E00E94D802D7
:1005400049015A019B01AC01A7EAB1E40E94F702FC
:100550006B017C01ACEEB4EFA50194010E94050390
:10056000DC01CB018C0D9D1DAE1DBF1DB7FF03C06F
:100570000197A109B0488093000190930101A093D5
:100580000201B0930301BC01CD019F77FF90EF9072
:10059000DF90CF90BF90AF909F908F900895609321
:1005A000000170930101809302019093030108956B
:1005B000052E97FB1EF400940E94EF0257FD07D012
:1005C0000E940A0307FC03D04EF40C94EF025095EE
:1005D0004095309521953F4F4F4F5F4F089590952F
:1005E0008095709561957F4F8F4F9F4F08950E9422
:1005F0002C03A59F900DB49F900DA49F800D911D7D
:1006000011240895B7FF0C94F7020E94F702821B91
:10061000930B0895A1E21A2EAA1BBB1BFD010DC06E
:10062000AA1FBB1FEE1FFF1FA217B307E407F507A2
:1006300020F0A21BB30BE40BF50B661F771F881F7E
:10064000991F1A9469F760957095809590959B0114
:10065000AC01BD01CF010895A29FB001B39FC001BD
:10066000A39F700D811D1124911DB29F700D811DDE
:0A0670001124911D0895F894FFCFA6
:04067A00010000007B
:107E0000112484B714BE81FFF0D085E080938100F7
:107E100082E08093C00088E18093C10086E0809377
:107E2000C20080E18093C4008EE0C9D0259A86E02C
:107E300020E33CEF91E0309385002093840096BBD3
:107E4000B09BFECF1D9AA8958150A9F7CC24DD24C4
:107E500088248394B5E0AB2EA1E19A2EF3E0BF2EE7
:107E6000A2D0813461F49FD0082FAFD0023811F036
:107E7000013811F484E001C083E08DD089C08234E0
:107E800011F484E103C0853419F485E0A6D080C0E4
:107E9000853579F488D0E82EFF2485D0082F10E0AE
:107EA000102F00270E291F29000F111F8ED06801E7
:107EB0006FC0863521F484E090D080E0DECF843638
:107EC00009F040C070D06FD0082F6DD080E0C81688
:107ED00080E7D80618F4F601B7BEE895C0E0D1E017
:107EE00062D089930C17E1F7F0E0CF16F0E7DF06D8
:107EF00018F0F601B7BEE89568D007B600FCFDCFD4
:107F0000A601A0E0B1E02C9130E011968C91119780
:107F100090E0982F8827822B932B1296FA010C0160
:107F200087BEE89511244E5F5F4FF1E0A038BF0790
:107F300051F7F601A7BEE89507B600FCFDCF97BE46
:107F4000E89526C08437B1F42ED02DD0F82E2BD052
:107F50003CD0F601EF2C8F010F5F1F4F84911BD097
:107F6000EA94F801C1F70894C11CD11CFA94CF0C13
:107F7000D11C0EC0853739F428D08EE10CD085E9AC
:107F80000AD08FE07ACF813511F488E018D01DD067
:107F900080E101D065CF982F8091C00085FFFCCF94
:107FA0009093C60008958091C00087FFFCCF809118
:107FB000C00084FD01C0A8958091C6000895E0E648
:107FC000F0E098E1908380830895EDDF803219F02E
:107FD00088E0F5DFFFCF84E1DECF1F93182FE3DFCA
:107FE0001150E9F7F2DF1F91089580E0E8DFEE27F6
:047FF000FF270994CA
:027FFE00040479
:0400000300007E007B
:00000001FF
